:020000040800F2
:100000003007002089010008CF1100080D100008FA
:10001000CD1100088F0200086F14000800000000D6
:10002000000000000000000000000000D3110008E4
:100030009102000800000000D1110008D51100084D
:10004000A3010008A3010008A3010008A301000800
:10005000A3010008A3010008A301000893020008FF
:10006000A3010008A3010008A3010008A3010008E0
:10007000A3010008A3010008A3010008A3010008D0
:10008000A3010008A3010008A3010008A3010008C0
:10009000A3010008A3010008A3010008A3010008B0
:1000A000A3010008A3010008A3010008A3010008A0
:1000B000A3010008A3010008A3010008A301000890
:1000C000A3010008A3010008A3010008A301000880
:1000D000A3010008A3010008A3010008A301000870
:1000E000A3010008A3010008A301000800F002F822
:1000F00000F03AF80AA090E8000C82448344AAF188
:100100000107DA4501D100F02FF8AFF2090EBAE885
:100110000F0013F0010F18BFFB1A43F0010318473B
:1001200098170000B8170000103A24BF78C878C1AB
:10013000FAD8520724BF30C830C144BF04680C60ED
:10014000704700000023002400250026103A28BF35
:1001500078C1FBD8520728BF30C148BF0B60704739
:100160001FB51FBD10B510BD00F058F81146FFF7C0
:10017000F7FF01F0FBF900F076F803B4FFF7F2FFA8
:1001800003BC00F07DF8000009488047094800479B
:10019000FEE7FEE7FEE7FEE7FEE7FEE7FEE7FEE737
:1001A000FEE7FEE704480549054A064B7047000094
:1001B00037120008ED000008300100203007002051
:1001C00030030020300300204FF0000200B513463A
:1001D00094469646203922BFA0E80C50A0E80C5067
:1001E000B1F12001BFF4F7AF090728BFA0E80C5018
:1001F00048BF0CC05DF804EB890028BF40F8042B11
:1002000008BF704748BF20F8022B11F0804F18BF7D
:1002100000F8012B7047704770477047754600F033
:100220002BF8AE4605006946534620F00700854688
:1002300018B020B5FFF7B6FFBDE820404FF000062C
:100240004FF000074FF000084FF0000B21F00701BE
:10025000AC46ACE8C009ACE8C009ACE8C009ACE801
:10026000C0098D46704710B50446AFF300802046A4
:10027000BDE81040FFF781BF00487047D000002064
:1002800001491820ABBEFEE7260002007047FEE7DA
:100290007047022000F02CB870B5022813D1114C21
:1002A000002511482178114E022906D003290AD1D0
:1002B000022100F019F970B104E0022100F014F9F4
:1002C000012801D0257070BD306801684D6200F0D2
:1002D000A3FC032003E0306800F0C6FC042020707B
:1002E00070BD000020000020000801400000002038
:1002F000044910B50A68024202D00860FFF7CCFF3B
:1003000010BD0000140401402DE9F84FDFF8B8914A
:10031000002409F1040A0AF1040B23460F270BF10C
:10032000040EC9E00125A5402A40AA427DD1674EAE
:10033000D1F804C0ACEB0608B44532D014DCBCF1F3
:10034000030F3AD009DCBCF1000F2AD0BCF1010F39
:100350001CD0BCF1020F31D11DE0BCF1110F17D040
:10036000BCF1120F2AD119E0B8F5881F19D006DCAC
:10037000B8F5803F15D0B8F5801F1FD111E0B8F552
:10038000001F0ED0B8F5041F18D10AE0CB6815E0A5
:10039000CB681B1D12E0CB6808330FE0CB680C3331
:1003A0000CE08B682BB1012B4FF0080303D04561A3
:1003B00004E0042302E0056100E00023FF2A01D8E5
:1003C000064601E000F104064FEA840501D9A5F1D3
:1003D0002005D6F8008007FA05FC28EA0C0803FA85
:1003E00005F548EA0508C6F800804D68ED0062D5BD
:1003F000374DAE6946F00106AE61AD6924F00306E3
:1004000005F001050095334D06EB050CDCF80850AE
:10041000A607360F07FA06F825EA0805DFF8B880C0
:10042000404503D14FF0000817E044E0DFF8AC800E
:10043000404502D14FF001080FE0DFF8A4804045AD
:1004400002D14FF0020808E0DFF89880404502D161
:100450004FF0030801E04FF0040808FA06F848EAF4
:100460000508CCF808804D68D9F80060ED034D46CA
:1004700001D5164300E096432E604D68DAF800601F
:10048000AD03554601D5164300E096432E604D68F6
:10049000DBF80060ED025D4601D5164300E09643AF
:1004A0002E604D68DEF80060AD02754601D516433A
:1004B00000E096432E60641C0D682A46E5407FF4F8
:1004C00031AFBDE8F88F00000004014000001110BA
:1004D000001002400000014000080140000C0140F3
:1004E00000100140001401408068084000D0012045
:1004F00070470AB1016170470904FBE70148806851
:100500007047000010000020024881680278114402
:100510008160704710000020074810B5016841F065
:1005200010010160032000F075F80F2000F006F8BC
:1005300000F024F8002010BD0020024070B50D4DE1
:1005400004464FF47A712878B1FBF0F00A49096843
:10055000B1FBF0F000F0CCFA48B9102C07D2002221
:100560002146501E00F036F800206C6070BD01205E
:1005700070BD0000100000201C0000200C4808B5D1
:10058000816941F001018161816901F001010091FE
:10059000C16941F08051C161C06900F08050009094
:1005A0000448416821F0E06141F00071416008BDFC
:1005B0000010024000000140002809DB00F01F028B
:1005C000012191404009800000F1E020C0F80011B5
:1005D00070470000F0B40E4B1B680C46C3F30223B7
:1005E000C3F10705042D00D90425191D072901D2DF
:1005F000002300E0DB1E012606FA05F1491E21401A
:1006000099409E40761E16403143F0BC00F030BF4A
:100610000CED00E0064900F0070208684FF6FF0302
:10062000184040EA0220034A104308607047000067
:100630000CED00E00000FA052DE9F0470F4605003B
:1006400061D0434E306800F00700B84209D23068EC
:1006500020F0070038433060306800F00700B842EF
:1006600051D128683B4C810712D5400703D56068FB
:1006700040F4E06060602878000703D5606840F4CB
:10068000605060606068A96820F0F0000843606016
:100690002878C00728D06868012810D0216802286F
:1006A00010D0890700292EDA616821F00301014387
:1006B0006160FFF723FF804641F288390DE0216831
:1006C0008903EFE78901EDE7FFF718FFA0EB0801C9
:1006D000494502D90320BDE8F0876068696800F0E9
:1006E0000C00B0EB810FEFD1306800F00700B8428A
:1006F0000BD9306820F0070038433060306800F0D4
:100700000700B84201D00120E5E72878400705D569
:100710006068E96820F4E0600843606028780007BA
:1007200006D56068296920F4605040EAC100606025
:1007300000F018F86168084AC1F30311515CC84021
:100740000649086006480068FFF7F8FE0020C2E787
:100750000020024000100240A61800081C000020E3
:100760001400002012A185B00FC98DE80F0014A05D
:10077000144A006804905168134801F00C03042BDC
:1007800010D0082B0ED1C1F38343C9031DF8030019
:100790000AD5516804AAC1F34041515C0A4A50434A
:1007A000B0FBF1F005B0704708494843FAE7000094
:1007B00002030405060708090A0B0C0D0E0F1010A2
:1007C000010200000010024000127A0000093D0002
:1007D0002DE9F84F040070D02078C04DC00749D0F3
:1007E0006868C0F38100012807D06868C0F3810001
:1007F000022809D16868C00306D52868800339D566
:1008000060680028E7D035E06068B0F5803F0BD025
:1008100010B1B0F5A02F11D0286820F480302860E6
:10082000286820F4802002E0286840F480302860A6
:10083000606890B1FFF762FE06460AE0286840F45F
:1008400080202860F0E700BFFFF758FE801B642877
:1008500073D828688003F7D50CE0FFF74FFE0646F3
:1008600005E000BFFFF74AFE801B6428F0D8286827
:100870008003F7D420789A4E80074FF001094FF09B
:10088000000839D5686810F00C0F07D06868C0F30D
:100890008100022809D16868C00306D4286880074F
:1008A00014D52069012808D110E02069B0B1C6F83C
:1008B0000090FFF723FE074605E00AE1FFF71EFE62
:1008C000C01B0228C4D828688007F7D5286861694A
:1008D00020F0F80040EAC10028600DE0C6F8008072
:1008E000FFF70CFE074604E0FFF708FEC01B0228D6
:1008F00023D828688007F7D4207800072CD57948BA
:10090000A169D9B1C0F80090FFF7F8FD074604E0EF
:10091000FFF7F4FDC01B02280FD8686A8007F7D5DF
:1009200071484FF4FA510068B0FBF1F0009000BF3D
:100930000098411E0091FAD20EE080E0C0F80080DD
:10094000FFF7DCFD074604E0FFF7D8FDC01B0228D7
:1009500075D8686A8007F7D42078400760D5E869C1
:100960000027C00008D4E86940F08050E861E869D9
:10097000012700F0805000905C480168C90513D43D
:100980000168834641F480710160FFF7B7FD82463C
:1009900006E000BFFFF7B2FDA0EB0A0064284ED8C6
:1009A000DBF80000C005F5D5E06801280AD008B1E1
:1009B000052813D0286A20F001002862286A20F058
:1009C000040002E0286A40F001002862E06841F279
:1009D000883B98B1FFF792FD82460BE0286A40F011
:1009E00004002862EEE700BFFFF788FDA0EB0A01D4
:1009F00059455AD8286A8007F6D50CE0FFF77EFDE6
:100A0000824605E0FFF77AFDA0EB0A0159454CD874
:100A1000286A8007F6D41FB1E86920F08050E861A9
:100A2000E06988B36968C1F38101022944D00228D2
:100A3000C6F8608004D0FFF761FD044638E034E07A
:100A4000FFF75CFD074604E0FFF758FDC01B0228D6
:100A50002BD828688001F7D4206AB0F5803F05D1F3
:100A60006868A16820F4003008436860D4E9080190
:100A70000843696821F4741108436860C6F86090FF
:100A8000FFF73CFD044606E025E000BFFFF736FD1A
:100A9000001B022809D828688001F7D51BE000BF99
:100AA000FFF72CFD001B022802D90320BDE8F88FB8
:100AB00028688001F4D40EE00128F7D06868226A23
:100AC00000F48031914204D1616A00F470108842D0
:100AD00001D00120EAE70020E8E700000010024012
:100AE00000004242800442421C000020007000408E
:100AF00010B5401EB0F1807F01D3012010BD4FF032
:100B0000E02460610F21601700F0B2FC0020A061BA
:100B100007202061002010BD70B590F83C20012A0C
:100B200026D0012480F83C40022280F83D20036852
:100B30005A689D6822F070060A6832435A600D4B6D
:100B400002689A4208D0B2F1804F05D00A4B9A420F
:100B500002D00A4B9A4204D1496825F08003194318
:100B6000916080F83D40002180F83C10084670BD3F
:100B7000022070BD002C014000040040000800402D
:100B800010B5040003D094F83D0010B107E0012037
:100B900010BD002084F83C00204600F01FF8022021
:100BA00084F83D00211D206800F046FB012084F8F8
:100BB000460084F83E0084F83F0084F8400084F842
:100BC000410084F8420084F8430084F8440084F82B
:100BD000450084F83D00002010BD000008B5016804
:100BE0000B48B1F1804F0BD00A4A914207D1C1693D
:100BF00041F00201C161C06900F00200009008BD2F
:100C0000C16941F00101C161C06900F00100F5E76F
:100C1000001002400004004090F83D10012901D06E
:100C200001207047022180F83D1000680B4988427E
:100C300008D0B0F1804F05D00949884202D0094957
:100C4000884204D1816801F00701062903D00168B8
:100C500041F001010160002070470000002C0140BC
:100C6000000400400008004001680A6A41F21113C4
:100C70001A4207D10A6A9B101A4203D10A6822F06D
:100C800001020A60012180F83D100020704770B514
:100C9000044690F83C00012817D0012584F83C5008
:100CA000022084F83D002068826822F0770222F456
:100CB0007F4282600868502830D00DDC20284DD05B
:100CC00005DC98B310283BD148E0022070BD3028E5
:100CD00044D0402834D139E0602828D0702806D08C
:100CE000B0F5805F2CD0B0F5005F29D10AE0CB6869
:100CF000D1E90121206800F0E2FA2068816841F022
:100D0000770109E0CB68D1E90121206800F0D7FA2A
:100D10002068816841F48041816011E0CA684968B7
:100D2000206800F081FB5021206807E016E0CA68C7
:100D30004968206800F089FB6021206800F0C9FA4A
:100D400084F83D50002084F83C0070BDCA684968B2
:100D5000206800F069FB40212068EFE72268014627
:100D60001046EBE700B585B000210091019102919A
:100D700003910068B0F1804F11D10A48816941F0B8
:100D8000040181618069694600F004000490042038
:100D900000900220019003900348FFF7B5FA05B0D8
:100DA00000BD0000001002400008014070B504467C
:100DB00090F83C000D4601280AD0012084F83C0040
:100DC00042B1042A18D0082A2AD00C2A4DD139E081
:100DD000022070BD206800F085FA2068816941F02A
:100DE000080181612068816921F004018161206826
:100DF00081692A69114311E0206800F09BFA20689C
:100E0000816941F4006181612068816921F4806118
:100E10008161206881692A6941EA0221816124E0B7
:100E2000206800F0B3FA2068C16941F00801C1618F
:100E30002068C16921F00401C1612068C1692A6983
:100E4000114311E0206800F0CDFA2068C16941F437
:100E50000061C1612068C16921F48061C1612068BD
:100E6000C1692A6941EA0221C161002084F83C007D
:100E700070BD10B5040003D094F83D0010B107E038
:100E8000012010BD002084F83C00204600F01EF830
:100E9000022084F83D00211D206800F0CDF90120DA
:100EA00084F8460084F83E0084F83F0084F840004F
:100EB00084F8410084F8420084F8430084F8440038
:100EC00084F8450084F83D00002010BD7047000004
:100ED00010B50446022249B104290ED0082913D0C6
:100EE00094F84100012816D0012010BD94F83E006E
:100EF0000128F9D184F83E200FE094F83F00012842
:100F0000F2D184F83F2008E094F840000128EBD1AA
:100F100084F8402001E084F841200122206800F09C
:100F2000C1F90F492068884203D1426C42F4004263
:100F300042642068884208D0B0F1804F05D009494A
:100F4000884202D00849884204D1816801F0070133
:100F5000062903D0016841F001010160002010BDA5
:100F6000002C0140000400400008004003480449F0
:100F7000C06848600148103000F08ABA20000020A4
:100F80000000002010B5124C2078012812D004284F
:100F90001CD1104800680068406A00F06EFB0E4AE1
:100FA0000E4B00F07DFB00F037FBE060BDE8104029
:100FB000FFF7DCBFFFF7A2FAA168884206D0002243
:100FC00001210748FFF795FA0220207010BD0000AC
:100FD00020000020000000209CC420B07268913FD7
:100FE000000801400160704710B501221146054814
:100FF000FFF77FFA044C01202070FFF77FFAA06012
:1010000010BD00000008014020000020FEE70000A5
:101010002DE9F04186B000252848009501950295FC
:101020000395816941F010018161816901F010012E
:101030000491816941F020018161816901F0200101
:101040000491816941F00401816180691C4F00F0C5
:1010500004004FF400540490002221463846FFF764
:1010600048FADFF86080002201214046FFF741FA8C
:10107000009401AA0124022682E8700069463846DD
:10108000FFF742F901AA009482E8700069464046E1
:10109000FFF73AF90C480096CDE90104694640464D
:1010A000FFF732F9002201210720FFF793FA07200A
:1010B000FFF782FA06B0BDE8F081000000100240A0
:1010C00000100140000801400000311010B58EB042
:1010D00000240794089409940A940B941C216846F0
:1010E0000C94FFF771F81E484FF0804101604721D2
:1010F000C0E9011444F61F61C0E903148461FFF7DD
:101100003FFD08B172B6FEE74FF48050079007A983
:101110001348FFF7BCFD08B172B6FEE71048FFF7B1
:10112000A8FE08B172B6FEE70B940BA90C480C940C
:10113000FFF7F2FC08B172B6FEE76020CDE90004CB
:1011400002940822694606480494FFF72FFE08B16E
:1011500072B6FEE70248FFF705FE0EB010BD0000B4
:101160004000002010B586B0002417480094019478
:101170000294039404941349059401604721C0E943
:1011800001144FF6FF71C0E903148461FFF7F8FC06
:1011900008B172B6FEE74FF48050009069460A48E5
:1011A000FFF775FD08B172B6FEE7049404A906487E
:1011B0000594FFF7B1FC002801D072B6FEE706B037
:1011C00010BD00000004004088000020FEE7FEE79C
:1011D00070477047FFF798B930B58FB0282168463F
:1011E000FEF7F2FF14210AA8FEF7EEFF0121080422
:1011F000CDE900100024029402250491CDE90750A6
:101200004FF4E01009906846FFF7E2FA08B172B6B1
:10121000FEE70F20CDE90A054FF48060CDE90C40D0
:1012200002210AA80E94FFF707FA002801D072B62F
:10123000FEE70FB030BD7047F0B50268164B174C93
:10124000174D4FF08047984205D0B84203D0A042D6
:1012500001D0A84203D122F070064A683243984276
:1012600005D0B84203D0A04201D0A84203D122F455
:101270004074CA6822434C6922F080022243026013
:101280008A68C2620A688262984201D10969016370
:1012900001214161F0BD0000002C0140000400402C
:1012A0000008004010B501F01F030121046A9940B5
:1012B0008C430462016A9A401143016210BD10B56B
:1012C000846842EA032224F47F440A432243826072
:1012D00010BD826822F070020A4342F0070181606B
:1012E0007047000030B5026A22F001020262026A11
:1012F0004368846924F073050C682C4322F00205CE
:101300008A682A430A4DA8420BD122F00805CA6810
:1013100023F440732A434D6922F004021D438B6974
:101320002B434360846149684163026230BD000021
:10133000002C014030B5026A22F010020262026AFB
:10134000436884690D6824F4E64444EA05248D6802
:1013500022F0200242EA05120B4DA8420ED1CD68C0
:1013600022F0800242EA05124D6923F4406343EA09
:1013700085038D6922F0400243EA8503436084615E
:1013800049688163026230BD002C014030B5026AB9
:1013900022F480720262036A4268C46923F4007313
:1013A00024F073050C682C438D6843EA05230C4D2B
:1013B000A8420ED1CD6823F4006343EA05234D69AA
:1013C00022F4405242EA05128D6923F4806342EA16
:1013D00005124260C4614968C163036230BD000008
:1013E000002C014030B5026A22F480520262046A85
:1013F0004268C3690D6823F4E64343EA05238D6818
:1014000024F4005444EA0534064DA84204D14D6941
:1014100022F4804242EA85124260C3614968016455
:10142000046230BD002C014010B5036A046A24F048
:1014300001040462846924F0F00444EA021423F0F5
:101440000A020A438461026210BD10B5036A23F0E8
:10145000100303628369046A23F4704343EA02328F
:1014600024F0A00343EA01118261016210BDFEE78E
:101470000907090E002804DB00F1E02080F80014C1
:10148000704700F00F0000F1E02080F8141D704755
:101490002DE9F041244C054600262078234F0228F0
:1014A00005D1267038686860FFF728F86060FFF79C
:1014B00025F86168411A1E48B1F52F7F02D80188CE
:1014C0005A291BD01B4A3968914202DC02885A2AE9
:1014D00016D002884FF4FA76CAB1B42A0ED15A2235
:1014E000028029602078401C2070FFF707F86060B8
:1014F000FFF704F86168401AB042F9D9BDE8F081FD
:1015000021780029FAD1068001202070F6E7B42165
:101510000180FEF7F3FF6060FEF7F0FF6168401A9C
:10152000B042F9D9EAE70000380000202C00002082
:10153000220000200000204110B50A4C0A48A17882
:1015400000F043F8FEF7DAFF6168401AB0F5967FC5
:1015500004D3FFF749FDFEF7D1FF6060BDE81040FE
:10156000FFF710BD2000002008000020FEF7D4FF88
:10157000FFF732FEFFF74CFDFFF7F4FDFFF7A6FD86
:1015800007490848FFF72EFD054906480822483953
:10159000083000F013F800BFFFF7CEFFFCE70000B3
:1015A000880000200000002010B5401A029CE41AB8
:1015B0006043511A90FBF1F0184410BD01600B46D6
:1015C000828011461846FFF783BC38B504460D46A5
:1015D00040F6C41000904FF40873B422002128464E
:1015E000FFF7E2FFA18880B249B104290BD0082996
:1015F0000DD00C2902D121680968086438BD216822
:101600000968486338BD21680968886338BD216866
:101610000968C86338BD000021F00042A2F16052A1
:10162000B2F5801F01F0004328BFD2F17F6C0BD9C7
:101630005FEA001C43EAC20242EB507018BF7047D9
:1016400028BF20F001007047B2F5801FBCBF1846CC
:1016500070474FEA410C1CF5001F02D2084600F00B
:101660001DB970B500F0C6F800000089FFF7F6BF9D
:101670004FF00040A0F580007047B0FA80F310FAF8
:1016800003F10AD0C3F11D0303F580634FEA415013
:101690004FEA035202EBD12170474FF00000704730
:1016A000DFF848C170B51CEA111E1EBF1CEA1315F5
:1016B0009EEA0C0F95EA0C0F00F06F8081EA03049C
:1016C00023EA4C134EEAD47E21EA4C1141F48011F6
:1016D00043F48013AE44A1FB024CA0FB0365AEF1C2
:1016E0007F7E361955EB0C05A1FB034C4CF1000332
:1016F000A0FB021C16EB0C06654153F100030942E6
:1017000018BF46F0010613F4007F0BD14FEA0331F6
:101710004FEA0530340341EA155140EA16506FF0A4
:1017200003020AE04FEAC3214FEAC520F40241EA6E
:10173000555140EA56506FF0020202EB2E4201EB87
:10174000025585EACE710AD05FEA440C18BF24F036
:10175000004450F1000041F1000120EAD47040F251
:10176000FE7C624500D270BDA84214BF4FF0804499
:101770004FF04044002E08BF0024BEF1806FA8BF88
:10178000A1F1C041BDE8704080F282804FF00000BE
:1017900001F1C04101F0004170479EEA0C0F0CEAD4
:1017A000131518BF95EA0C0F06D04FF0000081EA20
:1017B000030E0EF0004170BD00F01CF88900013EE0
:1017C00000F007B800F009B84FEA430C5FEA5C5C30
:1017D00008D081EA030100F05BB84FEA410C5FEAF0
:1017E0005C5CF6D14FF00000014970470000FF0734
:1017F0000000F87F0EF1020E2EF0030E5EF8046B6F
:10180000364205D4012A43EB030515F5001F12D813
:10181000012841EB010C1CF5001F0CD80ED14FEA3A
:10182000D17C15F5001F0CEB4C0C0CF1020C08BF21
:101830004CEBD37C04E04FF0080C01E04FEAD37C82
:101840000CEB4C0526FA05F606F00706B6F1040C7B
:1018500006D20EEB860CBDE870404CF0010C6047E0
:10186000DFE80CF0090B02024FF000414FF00000DE
:10187000A1F5002170BD19461046012851EB010465
:1018800018BFD4F5001484BF002001F0004170BDE2
:101890000808A0F500114FEA31017047FF2141EA25
:1018A000D050C00570470000000000000000010299
:1018B0000304060708090000D818000800000020EB
:1018C000400000002801000818190008400000200E
:1018D000F0060000440100080000000000000000C5
:1018E00000000000000000000100000010000000E7
:1018F000000000000024F40000005A000000000076
:1019000000000000000000000000000000000000D7
:081910000000000000000000CF
:04000005080000ED02
:00000001FF
